:020000040800F2
:10000000B0060020A1010008811700087D17000834
:100010007F170008491400081D2200080000000096
:10002000000000000000000000000000491C000863
:10003000891400080000000091190008591D0008EB
:10004000BB010008BB010008BB010008BB010008A0
:10005000BB010008BB010008BB010008BB01000890
:10006000BB010008BB010008BB010008BB01000880
:10007000BB010008BB010008BB010008BB01000870
:10008000BB010008BB010008BB010008BB01000860
:10009000BB010008BB010008BB0100089D1400085B
:1000A000BB010008BB010008BB010008BB01000840
:1000B000BB010008BB010008BB010008BB01000830
:1000C000BB010008BB010008BB010008BB01000820
:1000D000BB010008851F0008BB010008BB01000828
:1000E000BB010008BB010008BB01000800F002F8DA
:1000F00000F047F80AA090E8000C82448344AAF17B
:100100000107DA4501D100F03CF8AFF2090EBAE878
:100110000F0013F0010F18BFFB1A43F0010318473B
:100120008C270000AC270000103A24BF78C878C1A3
:10013000FAD8520724BF30C830C144BF04680C60ED
:10014000704700000023002400250026103A28BF35
:1001500078C1FBD8520728BF30C148BF0B60704739
:10016000662902F05083002070471FB500F02AFB7B
:1001700004000020002102F0EBF8E0601FBD10B584
:1001800010BD00F01FFC1146FFF7EFFF02F062F810
:1001900000F03DFC03B4FFF7F2FF03BC00F080FC6D
:1001A0000948804709480047FEE7FEE7FEE7FEE70B
:1001B000FEE7FEE7FEE7FEE7FEE7FEE70448054947
:1001C000054A064B70470000C91D0008ED000008F5
:1001D000B0000020B0060020B0020020B0020020D5
:1001E0000FB41CB5074B06AA7B44694600900598DE
:1001F00000F0CFFA0020694600F0DEFA1CBC5DF882
:1002000014FB0000CD0500002DE9F0474FF0000A77
:1002100089460446C0F820A02046E16888470028A7
:1002200076D0252806D0D4E901219047206A401CC9
:100230002062F1E7E168204600258847C4F81CA049
:1002400006460027C4F818A02A2E09D0304601F02F
:10025000FAFF38B304EB8708303EC8F8186019E09D
:1002600059F8041B204604EB87029161E168884736
:10027000012F064618D1E069002820DA25F0200574
:100280001DE0D8F8180000EB800006EB4000303885
:10029000C8F818002046E1688847064601F0D3FFF9
:1002A0000028EED1012F0AD02E2E08D12046E16879
:1002B00088477F1C0646022F45F02005C4DBA06955
:1002C000002803DA404245F00105A061E80701D0AB
:1002D00025F01005B6B1A6F14100192802D8203644
:1002E00045F400654A463146204625604D46FFF7F5
:1002F00037FF58B1012806D0ED1D25F0070000F1A9
:10030000080989E704E005F1040985E730468AE732
:10031000206ABDE8F0874FF0000200B5134694460E
:100320009646203922BFA0E80C50A0E80C50B1F14D
:100330002001BFF4F7AF090728BFA0E80C5048BF61
:100340000CC05DF804EB890028BF40F8042B08BFFF
:10035000704748BF20F8022B11F0804F18BF00F8FB
:10036000012B704770477047704770472DE9FF4F6A
:100370000C461E464FF0FF378BB0D2E90001DDF886
:1003800060800A908A46C1F30A5505B93D460021AE
:1003900008464FF00000BAF1000F00F4400005DA03
:1003A00000EB80004FF4400101EA50004FEA905901
:1003B000B9F1010F00DDB9460A9850EA4A000ED0A3
:1003C00044F61050A5F2FF3545432F14B8F1000F45
:1003D0001ED07542291E1EDDC9F100021CE0B8F1D5
:1003E000010F4FF0000001D0302103E0F24305E09F
:1003F0002154401CB042FBDB304600220021215436
:100400000B99C1F80880C1E900200FB0BDE8F08F5A
:10041000BD1B6D1CDEE74A4600DA694206A800F003
:100420005BFA06AB93E8070003AB83E8070050468E
:100430000A9900F03CFB8DE80700A0F500501F383A
:1004400000900398002D0ADD42F21F014A4608443D
:10045000002303A90390684600F0A5FD09E0A0F57C
:1004600000504A461F38002303A90390684600F055
:10047000AFFD8DE807000004000C03D04FF0FF3003
:10048000410800E01046B8F1000F03D000220092AE
:1004900015461EE0751E05D400F098F930326255FD
:1004A0006D1EF9D5B3460122084302D000227F1CFD
:1004B00004E02078302801D100227F1E002A09970D
:1004C00084D01DE0112D07DA00F080F9303262553A
:1004D0006D1C50EA0102F5D1084302D00098C8B162
:1004E0000EE00021681E05E0235C625C6354225428
:1004F000401E491C8142F7DBAB46A81B401E0990F9
:10050000002004F80B000B98099AC0F80880C0E995
:10051000002B7AE711264FF0000857E72DE9F04F3E
:1005200088460446D21D22F0070191B0D1E90001AE
:10053000CDE90A0101F073FE02460B98C00F01D00D
:100540002D2007E02068810701D52B2002E0202123
:1005500001EAC000032A099001D0072A05DB0346FF
:100560004146204600F078F90BE12078800601D55D
:10057000E06900E00620B8F1650F814606D0B8F1C9
:10058000660F18D0B8F1670F70D131E00020B9F1D3
:10059000110F009001DB112301E009F101030AAA08
:1005A00001A90CA8FFF7E2FEDDE90C70002609F1B5
:1005B0000105834647E001204B4600904FF000477D
:1005C0000AAA01A90CA8FFF7D1FEDDE90DB00C992C
:1005D0005D46002610B909F101000D18B9EB0500C0
:1005E00003D4C0F1FF3609F10105A5EB09002BE0AA
:1005F000B9F1010F01DA4FF001090020B9F1110F33
:100600000090484601DD112300E003460AAA01A933
:100610000CA8FFF7ABFEDDE90C704D4600268346C3
:10062000207800070AD4AB4500DA5D4601A8012D09
:1006300004DD411911F8011C302907D04F4502DAB9
:1006400017F1040F04DA012082460FE06D1EEEE779
:10065000002F02DCED1B3E4403E0781CA84200DDC5
:100660007D1CB81B00F1010A4FF0004720780007FD
:1006700003D4AA4501DB4FF0FF3A0021B7F1004F48
:100680000DF143088DF8431024D002202B23002FB6
:1006900001DA7F422D230A21021EA0F1010000DCB5
:1006A0005FB197FBF1FC97FBF1F201FB1C7C174655
:1006B0000CF1300C08F801CDEEE7A8F10100037051
:1006C0002188090501D5452100E06521A0F1010837
:1006D00000F8011C09980FA9A1EB0807FF1D00B144
:1006E0000120411901EBEA70A1693844081A401E43
:1006F000A0612078C00602D42046AFF3008009989C
:1007000028B1D4E901219047206A401C206220785A
:10071000C00622D52046AFF300801EE0002E04DB89
:10072000B34502DD01A8805D00E03020D4E901215D
:100730009047206A401C2062761CAAF101005FEA03
:10074000000A0AD100F03EF8C0680168405CD4E9B4
:1007500001219047206A401C2062281EA5F1010556
:10076000DCDC07E0D4E9012118F8010B9047206A8E
:10077000401C2062381EA7F10107F3DC2046AFF3CE
:100780000080032011B041E601694A1C026108782B
:10079000704700B58FB0CDE90131002105910549C1
:1007A0007944CDE9031011466846FFF72DFD0FB0DF
:1007B00000BD0000E5FFFFFF0A6802F8010B0A60B8
:1007C00070470000004870476C00002030B5B0F161
:1007D0000A024FEA900E71F100034EEA817EB0EBFF
:1007E0000E0061EB91014FEA101E4EEA017E10EB04
:1007F0000E0041EB11114FEA102E4EEA016E10EB84
:100800000E0041EB11214FEA104E4EEA014E10EB63
:100810000E0041EB1141401841F100014FEAD000B8
:1008200040EA41704FEAD10110EB80054FEA8104A4
:1008300044EA907444EB01046D1944EB0404521B28
:10084000A3414FF0000348BF0A3200D530BD401C21
:1008500041F1000130BD00002DE9F0411F46044682
:1008600003260168072A01F4006004DB08B116A51D
:1008700005E016A503E008B115A500E015A521F0D7
:1008800010002060A069C01EA0610FB1401EA061D1
:100890002046AFF300804FB1D4E90121384690479C
:1008A000206A401C2062C01C206206E0206AFAE731
:1008B000D4E9012115F8010B9047761EF8D22046A5
:1008C000AFF30080BDE8F0814E414E006E616E00D6
:1008D000494E4600696E66002DE9F047814616468E
:1008E0008AB0354878440DC88DE80D003248784408
:1008F000801C03AC0DC884E80D0041F69B30084411
:10090000372190FBF1F290FBF1F5A5F1800501FB99
:1009100012041B3C02D56442012000E00020DFF8F5
:1009200098A080460027FA44AAF1BE0A0EE0E0072C
:100930000AD03246684607EB470101230AEB8101E2
:1009400000F046FB8DE8070064107F1C002CEED100
:10095000194F7F44AE3F19E0E80715D007EB0410AC
:100960000DF1180A90E80E008AE80E00C068F04207
:1009700001D1981908903246012306A903A800F076
:1009800027FB03AB83E807006D10641C002DE3D147
:100990004FF0010332466946B8F1000F03A802D0B8
:1009A00000F001FB01E000F013FBC9E90001C9F808
:1009B00008200AB0BDE8F087AC1F0000004870476F
:1009C0004C0000207546FFF7F9FFAE46050069466A
:1009D000534620F00700854618B020B5FFF7EEFB20
:1009E000BDE820404FF000064FF000074FF0000830
:1009F0004FF0000B21F00701AC46ACE8C009ACE8B1
:100A0000C009ACE8C009ACE8C0098D46704710B514
:100A10000446AFF300802046BDE81040FFF7BABBA4
:100A20004FF0013C50F8042B51F8043B9A4221D17D
:100A3000A2EB0C03934313EACC1317D150F8042B09
:100A400051F8043B9A4215D1A2EB0C03934313EAED
:100A5000CC130BD150F8042B51F8043B9A4209D126
:100A6000A2EB0C03934313EACC13DBD04FF000004E
:100A7000704700BFD01A01BAB1FA81F101F0180134
:100A800022FA01F0CB40C1F12001DBB2C0B2C01AA2
:100A90002CFA01F3D11A914311EAC311E6D1704740
:100AA00001491820ABBEFEE72600020070475FEA4E
:100AB000400C08BF91F0000F4FEA8C234FEAC1228F
:100AC00043EA51514FEA1C5018BF00F5F0404FEA7D
:100AD000300018BF41F000415FEA6C5C00F02980F3
:100AE000BCF1FF3F08BF40F080407047130C06BFC9
:100AF00012044FF0100C4FF0000C130E04BF120242
:100B00000CF1080C130F04BF12010CF1040C930F2D
:100B100004BF92000CF1020CD30F04BF52000CF181
:100B2000010C11464FF00002A0F11F00A0EB0C00D9
:100B3000704711F0004F08BF704731F000413FF49B
:100B4000D5AF0B0C06BF09044FF0100C4FF0000C92
:100B50000B0E04BF09020CF1080C0B0F04BF0901B6
:100B60000CF1040C8B0F04BF89000CF1020CCB0FAD
:100B700004BF49000CF1010CCCF12003A0EB0C00E8
:100B800022FA03F302FA0CF241EA030100F1010038
:100B9000704720F07F4C80EA030023F07F47ACEBE6
:100BA000070303F57C5300F0004003F1FF032DE938
:100BB00080494FEA154B09B44FEA144325EA0B4E1E
:100BC00024EA03480FF2042606EB132749083E786F
:100BD0005FEA320203FB0667C7F5000707FB06F66C
:100BE0004FEA54374FEAD64606F1020607FB066C79
:100BF000CCF1005C4FEA1C472CEA074C07FB06F4DB
:100C00000CFB06F504EB15464FEA961634BF0020A0
:100C10004FF000404FEAD13706FB07FC4FEA1C4C6F
:100C20000CFB0BF7D21B03FB0CF761EB07010CFB72
:100C30000EF7B0EB074072EB17420CFB08F734BF1E
:100C4000A2EB0742B2EB074261EB17414FEA0C44BB
:100C50004FEA910706FB07FC4FEA1C4C0CFB0BF715
:100C6000B0EBC74072EB573203FB0CF734BFA2EB7B
:100C7000C742B2EBC74261EB57310CFB0EF7B0EB4A
:100C8000C70072EB57720CFB08F734BFA2EBC70228
:100C9000B2EBC70261EB5771039F4FEA816141EAF2
:100CA000921104EBCC044FEAD1374FEA826206FB83
:100CB00007FC42EA90124FEA80604FEA1C4C0CFBA2
:100CC0000BF7D21B03FB0CF761EB07010CFB0EF7D4
:100CD000B0EB074072EB17420CFB08F734BFA2EBF6
:100CE0000742B2EB074261EB17414FEA8C554FEADE
:100CF000910704EB9C2406FB07FC4FEA1C4C0CFB01
:100D00000BF7B0EBC74072EB573203FB0CF734BF65
:100D1000A2EBC742B2EBC74261EB57310CFB0EF7B7
:100D2000B0EBC70072EB57720CFB08F734BFA2EBB5
:100D3000C702B2EBC70261EB577115EB4C254FEAC6
:100D4000816141EA92114FEA82624FEAD13742EA69
:100D5000901206FB07FC44F100044FEA80604FEA62
:100D60001C4C0CFB0BF7D21B03FB0CF761EB0701D0
:100D70000CFB0EF7B0EB074072EB17420CFB08F7C9
:100D800034BFA2EB0742B2EB074261EB174115EB10
:100D90001C154FEA813141EA92414FEA823242EA20
:100DA00090424FEA80304FEA0C7644F1000448EA62
:100DB00003434EEA0B484FF0000EB2EB080C71EB08
:100DC000030724BF624639464EEB0E0E4FF0000B70
:100DD0000018524149414BEB0B0BB2EB080C71EB85
:100DE00003077BF1000B24BF624639464EEB0E0E23
:100DF0004FF0000B0018524149414BEB0B0BB2EB8B
:100E0000080C71EB03077BF1000B24BF62463946E7
:100E10004EEB0E0E51EA020718BF46F0010616EB24
:100E20000E7655F1000254F1000103D5BDE88901A9
:100E3000BDE80088BDE88901BDE80048B619524107
:100E400041EB0101A3F10103704780807F7E7D7C2F
:100E50007B7A7978777676757473727171706F6E4C
:100E60006E6D6C6C6B6A6A696868676666656464F7
:100E7000636362616160605F5F5E5E5D5D5C5C5B81
:100E80005B5A5A59595858575756565555555454F0
:100E9000535352525251515050504F4F4F4E4E4D4E
:100EA0004D4D4C4C4C4B4B4B4A4A4A49494948489A
:100EB00048474747474646464545454444444443DA
:100EC00043434342424242414141002B9C4630D47D
:100ED00077002BD01CB54FEA370703B44FF0100052
:100EE0004FF01001BAF1000F06D0BCF1000FDCBFCB
:100EF00040F0080040F008014FF000000FBCBDE8D2
:100F000010400BF1010BBBF1010F08BF5FEA17079F
:100F100022BF12F1010211F101014FF0004143F132
:100F2000000300F0004043EA00007047F9D357087F
:100F3000D0E746EA064613F1400F4FEA16461FDD9A
:100F400013F1200FDFBF16430A46002120335B4216
:100F5000BED0C3F1200746EA064602FA07F74FEA79
:100F6000164646EA0706C3F1200722FA03F201FA01
:100F700007F721FA03F14FF0000342EA0702A7E75F
:100F800046EA020646EA06464FEA164646EA0106E1
:100F9000BCBF46EA0646360C4FF000034FF0000295
:100FA0004FF0000194E72DE9804C9A46934670B4C7
:100FB00091E8380007C831EA400C48BF34EA430CD6
:100FC00003D5FFF7E6FDFFF780FFF0BCBDE8008C1E
:100FD0002DE9804C9A46934670B491E8380007C8D2
:100FE00010F0804F08BF13F0804F03D100F005F8D8
:100FF000FFF76BFFF0BCBDE8008C20F07F4780EA74
:10100000030023F07F4C07EB0C03A3F57C5300F0A7
:101010000040A3F1FE0392F0000F00F0B38095F0C2
:10102000000F00F077802DE901494FEA11404FEAA7
:10103000144621EA004800FB06FC24EA064708FBA8
:1010400006F607FB08F800FB07F718EB06484CEB21
:10105000164C4FEA124B18EB07484FEA15464CEB7B
:10106000174022EA0B4E0BFB06FC25EA06470EFB57
:1010700006F607FB0EFE0BFB07F71EEB064E4CEBCE
:10108000164C4FF000061EEB074E4CEB174B18EBBF
:101090000B0840F1000018EB0E0B58EB000840F174
:1010A00000008F1A4FF000013CBFC943661B14BFFC
:1010B000B5EB040C00213CBFC943F61B4FEA1744B3
:1010C0004EEA8E0E27EA04454FEA1C4704FB0762EE
:1010D0002CEA074C05FB07F70CFB05F604FB0CFCA0
:1010E00016EB074642EB174216EB0C4642EB1C424E
:1010F0001BEB060658EB0202414146EA9E0601D56B
:10110000BDE80189B619524141EB0101A3F1010388
:10111000BDE801894FEA14454FEA114724EA054624
:1011200021EA074C05FB07F406FB07F70CFB06F169
:1011300005FB0CFC11EB074144EB17444FEA124747
:1011400011EB0C4144EB1C4422EA074C05FB07F26F
:1011500006FB07F70CFB06F605FB0CFC16EB074637
:1011600042EB174216EB0C4642EB1C456A1854F151
:10117000000148BF7047B619524141EB0101A3F18C
:101180000103704795F0000F37D04FEA11424FEA44
:10119000144721EA024624EA074C02FB07F106FB4A
:1011A00007F70CFB06F402FB0CFC14EB074441EBC5
:1011B00017414FEA154714EB0C4441EB1C4125EA5B
:1011C000074C02FB07F506FB07F70CFB06F602FBD4
:1011D0000CFC16EB074645EB174516EB0C4645EBAA
:1011E0001C42121951F1000148BF7047B619524113
:1011F00041EB0101A3F1010370474FEA14454FEAA7
:10120000114724EA054621EA074C05FB07F106FBD6
:1012100007F70CFB06F24FF0000605FB0CFC12EB87
:10122000074241EB174112EB0C4251EB1C4148BF06
:101230007047921841EB0101A3F1010370470029A7
:1012400004D0816841F0010181607047816821F01C
:10125000010181607047000010B586B001214FF494
:10126000017000F0E1FB0420ADF8000000248DF8CF
:1012700003406946194800F01DFA01948DF80840B2
:1012800001208DF809004FF46021039104948DF83A
:101290001400134C01A9204600F062F80523012236
:1012A0000221204600F080F801212046FFF7C7FF09
:1012B000204600F0B3F8204600F025F80028FAD1C7
:1012C000204600F0BCF8204600F00CF80028FAD1C7
:1012D0000121204600F0A7F806B010BD000801402B
:1012E00000240140014600208968490700D50120FB
:1012F0007047C06C80B270470246002012680A42F4
:1013000000D001207047014600208968090700D5F8
:101310000120704710B500F013F801F02FF90549CE
:1013200001F074F9044901F067F8BDE81040034981
:1013300001F06CB93333534000F07F450000C842E0
:1013400010B5064C02212046FFF7D6FF0028F9D041
:101350002046BDE81040FFF7CCBF0000002401404C
:1013600010B542680E4B1A400C790B6842EA042211
:101370001343436082680B4B1A40D1E90243234375
:101380004C7942EA440213438360C26A22F4700239
:10139000097C491EC9B242EA0151C16210BD000078
:1013A000FFFEF0FFFDF7F1FF70B5072609290AD906
:1013B000C568A1F10A0404EB4404A640B543A34068
:1013C0001D43C56007E0056901EB4104A640B54334
:1013D000A3401D4305611F23072A09D2446B521EF7
:1013E00002EB820293409C4391400C43446370BDE6
:1013F0000D2A09D2046BD21F02EB820293409C4358
:1014000091400C43046370BDC46A0D3A02EB820242
:1014100093409C4391400C43C46270BD816841F08D
:10142000080181607047002904D0816841F4A0015F
:1014300081607047816821F4A001816070478168F4
:1014400041F0040181607047FEE7000010B50C4CCC
:101450000C4AD2E9010101F0A5F908D20121204688
:1014600000F082F9BDE81040012000F01DBA012112
:10147000204600F07BF9BDE81040002000F014BACF
:101480000008014028000020704700000249486021
:1014900048680028FCD170474400002010B588B08F
:1014A0004FF48074204600F06DF8002826D01420F8
:1014B000FFF7ECFF2146124800F04FF9C0B9114A7E
:1014C0001078401C0321B0FBF1F301FB13001070F6
:1014D0000D4951F82000906000F056FF02460B467F
:1014E0000AA16846FEF77CFE69460F4800F086FEBA
:1014F00008B02046BDE8104000F018B808B010BD94
:1015000000080140280000200C2800084E657720C4
:101510005468726573686F6C643A20252E3166C218
:10152000B0430D0A00000000003801400149086086
:1015300070470000140401403EB50121084600F048
:1015400073FA0821002000F0A1F84FF48070019098
:1015500000208DF808000C208DF8090001248DF87A
:101560000A4001A800F01EF817208DF800000F2097
:101570008DF801008DF802008DF80340684600F0F8
:1015800001F93EBD01460020054A12680A40044B9D
:1015900014331B680B4202D0002A00D00120704790
:1015A0000004014030B51B4A83790168002B2AD022
:1015B00013688B431360111D0B680468A3430B6011
:1015C000017911440B68046823430B60114C083403
:1015D0002168036899432160231D19680568A943A0
:1015E00019604179102905D011440A680068024346
:1015F0000A6030BD216802681143216019680068E3
:101600000143196030BD0079104402688A430260CA
:1016100030BD00000004014004490A6822F01002B5
:101620000A600A6802430A60704700000020024016
:10163000034A116801F0380101431160704700004E
:101640000020024038B50121042000F0EDF901200E
:10165000ADF8000010208DF8030003208DF8020083
:10166000094C6946204600F025F8A115ADF8001098
:1016700048218DF803106946204600F01BF801212F
:10168000204600F071F838BD0008014010B58A0707
:10169000120F0F23934021F00304054921448C6865
:1016A0009C438C608B68904003438B6010BD0000AE
:1016B000000001402DE9F0410022CC7804F00F0336
:1016C000E40601D58C7823430C784FF00F0714F013
:1016D000FF0F4FF0010C1CD005680CFA02F40E88C5
:1016E0002640A64211D1960007FA06F825EA080519
:1016F00003FA06F848EA0505CE78282E02D0482ECF
:1017000002D002E0446100E00461521C082AE4D3E4
:1017100005600A88FF2A1ED94568002202F10806E2
:101720000CFA06F40E882640A64210D1960007FA5D
:1017300006F825EA080503FA06F848EA0505CE7812
:10174000282E00D14461CE78482E00D10461521C6D
:10175000082AE3D34560BDE8F08102460020926884
:101760000A4200D001207047416170470161704713
:10177000014800687047000044000020FEE7FEE7D3
:101780007047000070B50F23C27801260178002A47
:101790001ED0144A126802F4E062C2F5E062120A36
:1017A000C2F10404D3404578A54082781A402A4308
:1017B000120101F1E02181F80024007800F01F01FE
:1017C0008E404009800000F1E020C0F8006170BD4B
:1017D00001F01F0086404809800000F1E020C0F8B9
:1017E000806170BD0CED00E00907090E002806DAE3
:1017F00000F00F0000F1E02080F8141D704700F1A8
:10180000E02080F80014704730B589B00121084607
:1018100000F0FCF80121052000F006F90220ADF8E7
:10182000200018208DF8230003208DF8220008A93D
:101830001B48FFF73FFF40F2E730ADF8180040F2D9
:10184000CF20ADF814000024ADF81A40ADF81640D2
:101850004FF0804505A9284600F046FB6021ADF811
:1018600004100121ADF80610ADF80A40ADF80C40A7
:1018700001A9284600F0E8FA0821284600F028FBD4
:101880000121284600F0C8FA0121284600F0D0FACC
:1018900004498C802146284600F024FB09B030BD65
:1018A0000008014038000020F8B501260025154C3D
:1018B000B70700281CD0207898B90220ADF80000A6
:1018C00018208DF8030003208DF8020069460E48A9
:1018D000FFF7F0FE2946A5806670A170384600F03B
:1018E00001FB26703846BDE8F840012100F0A0BA9F
:1018F0002570A580A57066703846BDE8F8400021C7
:1019000000F0F0BA380000200008014070B51F4D0B
:101910004FF080462878002819D0FFF729FF0446A9
:10192000A868201A0A2830D368783221A8B1A8788C
:101930004FF47A724243B2FBF1F2AA80401CC0B26B
:10194000A870322816D3A9700020687012E03046C3
:10195000BDE87040002100F0C5BAA878401EC0B2B2
:10196000A8704FF47A724243B2FBF1F1A98008B932
:1019700001206870A9884FF47A70814200D9A8804C
:10198000A988304600F0AEFAAC6070BD3800002087
:101990007047000010B588B020216846FEF7BBFCF8
:1019A0000C480D4CC178012905D00CA1204600F04F
:1019B00025FC08B010BD806800F0E6FC02460B462E
:1019C0000CA16846FEF70CFC6946204600F016FCA8
:1019D000EFE700002800002000380140696E7661C2
:1019E0006C696420696E737472756374696F6E2EAE
:1019F0000D0A00005468726573686F6C643A2025A4
:101A00002E3166C2B0430D0A00000000054A0029CD
:101A100003D0D1690143D1617047D1698143D1615C
:101A20007047000000100240054A002903D0916968
:101A30000143916170479169814391617047000052
:101A4000001002400C48016841F00101016041684A
:101A50000A4A114041600168094A11400160016869
:101A600021F480210160416821F4FE0141604FF4BE
:101A70001F01816070470000001002400000FFF865
:101A8000FFFFF6FE10B5264A516801F00C01254B08
:101A9000002927D0042927D0082927D003605168BE
:101AA00001F0F0010909204B5C5C0168E1404160F4
:101AB000546804F4E064240A1C5D21FA04F4846090
:101AC000546804F46054E40A1B5DD940C160526854
:101AD00002F44042920B144B1B1F9A5CB1FBF2F1D3
:101AE000016110BD0360DAE70360D8E7516801F4D3
:101AF0007011536803F48033022404EB914133B135
:101B000053689B0307D5094B59430160C7E7074B4F
:101B100059430160C3E7034B59430160BFE700002D
:101B20000010024000127A001800002000093D0059
:101B3000034600205909094A01290AD002290AD07E
:101B4000516A03F01F02012393400B4200D0012091
:101B500070471168F5E7116AF3E7000000100240D2
:101B60000248406800F00C0070470000001002407E
:101B7000034A516821F0F0010143516070470000B1
:101B8000001002400C490A6822F480320A600A6898
:101B900022F480220A60B0F5803F07D0B0F5802F94
:101BA00003D1086840F4A02008607047086840F43A
:101BB000803008607047000000100240034A5168FE
:101BC00021F4E061014351607047000000100240C1
:101BD000034A516821F4605141EAC00050607047E7
:101BE00000100240014908667047000000004242B0
:101BF000034B5A6822F47C12084310435860704724
:101C000000100240034A516821F003010143516072
:101C1000704700000010024018B5002000904FF4FB
:101C2000A0643120FFF784FF0099491C00910099BE
:101C3000A14201D00028F4D03120FFF779FF08B18C
:101C4000012018BD002018BD7047000030B585B0D8
:101C500014216846FEF75FFBFFF78AFD04460B4D33
:101C6000E868201AB0F57A7F0DD3686800F08CFB25
:101C700002460B4606A16846FEF7B2FA69460848D6
:101C800000F0BCFAEC6005B030BD00002800002078
:101C900054656D703A20252E3166C2B0430D0A009E
:101CA00000380140AFF300800CB500220192009291
:101CB0002748016841F4803101604FF4A063016856
:101CC00001F4003100910199491C0191009911B969
:101CD00001999942F3D10168890302D5012100914C
:101CE00000E000920099012930D11A490A6842F0B7
:101CF00010020A600A6822F003020A600A6842F0D1
:101D000002020A604168416041684160416841F4F3
:101D100080614160416821F47C114160416841F477
:101D2000E8114160016841F080710160016889013A
:101D3000FCD5416821F003014160416841F0020196
:101D400041604168C1F381010229FAD10CBD000054
:101D5000001002400020024005480168491C016053
:101D60004168002902D04168491E41607047000067
:101D70004400002070B512484FF47A710068B0FB3F
:101D8000F1F100256E1EB1F1807F01D301210DE03C
:101D900021F07F414FF0E024491E61610F21304660
:101DA000FFF722FDA56107202061002101B1FEE7B8
:101DB00000213046FFF718FD02480560456070BD00
:101DC000000000204400002010B50F48016841F0D9
:101DD0000101016041680D4A1140416001680C4AEF
:101DE00011400160016821F480210160416821F403
:101DF000FE0141604FF41F018160FFF753FF054969
:101E00004FF00060086010BD001002400000FFF8B5
:101E1000FFFFF6FE08ED00E0002904D0018841F044
:101E2000800101807047018821F0800101807047A6
:101E3000002904D0018841F0010101807047018828
:101E400021F001010180704770B5028C22F0100270
:101E50000284028C8388048B24F4E04424F44076CA
:101E60000D884FF6FF7404EA0525354322F0200261
:101E70000E8904EA061616434A8804EA021232431F
:101E8000114EB04202D0114EB04217D122F0800262
:101E90004E8904EA0616164326F040068A8804EAAC
:101EA0000212324323F4806323F400638E8904EA30
:101EB00086061E43CB8904EA83033343838005836C
:101EC000C9880187028470BD002C014000340140A4
:101ED000028B22F400624FF6FF7303EA01211143E3
:101EE000018370470187704730B502881B4C1C4D39
:101EF000A0420DD0A8420BD0B0F1804F08D0194BB2
:101F0000984205D0184B984202D0184B984203D102
:101F100022F070034A881A43154B984206D0154B9D
:101F2000984203D022F44073CA881A4302808A88F8
:101F300082850A880285A0420AD0A84208D00E4AAB
:101F4000904205D00D4A904202D00D4A904201D1F4
:101F5000097A01860121818230BD0000002C0140F8
:101F6000003401400004004000080040000C004024
:101F700000100040001400400040014000440140B7
:101F80000048014070B50A4C40F2255529462046CC
:101F900000F07FF800280AD02946204600F00CF80F
:101FA000204600F00FF90349C8700120887070BD09
:101FB000003801402800002040F66A120A0A012178
:101FC0009140C94301807047002904D0818941F4C0
:101FD000005181817047818921F4005181817047CE
:101FE00030B587B0012144F20400FFF71DFD4FF426
:101FF0000070ADF8180018208DF81B0003208DF834
:102000001A001E4C06A92046FFF754FB2115ADF817
:10201000181004218DF81B1006A92046FFF74AFB73
:102020004FF4165002900024ADF80C40ADF80E406D
:10203000ADF81040ADF814400C20ADF81200104D72
:1020400002A9284600F060F825218DF804108DF8CB
:1020500005408DF8064001218DF8071001A8FFF713
:1020600091FB012240F22551284600F032F801216F
:102070002846FFF7A9FF07B030BD00000008014067
:10208000003801400246002012880A4200D0012098
:10209000704770B5002440F66A12C1F3421301F094
:1020A0001F05012606FA05F2012B0CD0022B0DD0DC
:1020B000838A1340090A8E40008830400BB100B17A
:1020C0000124204670BD83891340F3E7038A13403F
:1020D000F0E710B540F66A13C1F3421301F01F0494
:1020E0000121A140012B07D0022B07D014303AB1B7
:1020F00002680A43026010BD0C30F8E71030F6E7C2
:1021000002688A43026010BD30B585B004460D46B2
:10211000208A4CF6FF710840E98801432182A0899A
:102120004EF6F3110840A9882A8911436A890243AF
:102130001143A181A08A4FF6FF410840A9890143BC
:10214000A1826846FFF79EFC1D48844201D1039896
:1021500000E00298A189090408D500EBC00101EB59
:10216000001029684900B0FBF1F007E000EBC00166
:1021700001EB001029688900B0FBF1F06422B0FB8C
:10218000F2F109010B096FF018056B4300EB8300B6
:10219000A3891D044FF0320307D503EBC000B0FB49
:1021A000F2F000F00700084306E003EB0010B0FB7C
:1021B000F2F000F00F000843208105B030BD0000B0
:1021C000003801408088C0F30800704770B50446AD
:1021D0000D4680212046FFF755FF0028F9D02946FB
:1021E000204600F007F840212046FFF74BFF00286B
:1021F000F9D070BDC1F308018180704770B5064603
:102200000D46002406E02146641CA4B2695C3046F9
:10221000FFF7DCFF285D0028F5D170BDFEE749001F
:1022200050EAC12018BF04204A0D18BF40F0010039
:1022300040F2FF72B2EB515F08BF40F0020001288C
:1022400008BF0520704730380A2801D201207047A6
:102250000020704700F04AF8FFF78CFDFEF7FCFF06
:10226000FFF7D2FAFFF7BCFEFFF7ECF9FFF764F9CE
:102270001C4C01212046FFF779FA4FF49675284649
:10228000FFF704F901212046FFF76EFA2846FFF711
:10229000FDF801212046FFF769FA2846FFF7F6F816
:1022A00001212046FFF760FA2846FFF7EFF80121E9
:1022B0002046FFF75BFA0C4C012060700025FFF709
:1022C00029F86060FFF7C2F8FFF720FBFFF7BEFCBC
:1022D000A07810B1FFF75EFBA5701420FFF7D6F8C9
:1022E000EDE70000000801402800002010B5FFF7CE
:1022F000A9FB4FF480342046FFF744FCFFF78CFC29
:10230000012813D14FF4E0112046FFF771FC0120A2
:10231000FFF768FC3920FFF70BFC0028FAD00220F9
:10232000FFF770FCFFF71CFC0828FBD10020FFF72B
:102330001FFC4FF48060FFF741FC0020FFF748FCD2
:102340000220FFF775F9BDE810401020FFF764B9CF
:1023500010B500290AD00878002807D0054878442D
:10236000FEF75EFB002801D0002010BD0248784433
:1023700010BD00006E050000660500000808A0F50D
:1023800000114FEA3101704743004FEAD30C4FEA86
:102390003C0C43401FBF40070CF1605113F0FE4F4F
:1023A00070471CF0006F03D100200CF00041704713
:1023B0000CF0004343EA507010B540EACC0000F046
:1023C000A6F900BF000000924FEA0001FFF7D6BF58
:1023D0004FF000414FF00000A1F500217047401080
:1023E00058BFC0F14040491058BFC1F1404181423F
:1023F000EFF30080704700004FF47F0C1CEAD0120E
:102400001EBF1CEAD11392EA0C0F93EA0C0F00F0E6
:10241000858090EA010F48BF42F4807240F4000CBE
:1024200041F400002CF07F4120F07F4000B5814254
:10243000A2EB03020FF2081CACEB504EC0F10000FF
:102440009EF800E04FEA4E0E00FB0EFC38BF49003C
:102450004FEA2C1C02F5FA020CFB0EF34FEACE1EDB
:102460004FEA112C4FEAC1210EEB635E42EB224290
:102470000EFB0CFC4FEA1C5300FB03114FEA112C1E
:102480004FEA01310EFB0CFC4FEADC4C00FB0C1157
:10249000C14228BF09184CEB03335DF804EB10EB85
:1024A000410143EBC250B2F57C0F38BF704729D5CC
:1024B00012F0F00F1CBF00F1C04000F00040704768
:1024C000008182838485868788898B8C8D8E8F910D
:1024D0009293959697999A9C9D9FA0A2A3A5A7A831
:1024E000AAACAEB0B2B3B5B7B9BCBEC0C2C5C7C95D
:1024F000CCCED1D4D7D9DCDFE2E6E9ECF0F3F7FAC1
:10250000FE0000004FEA400C0CF1807CBCF17E4FD5
:1025100028BF7047B0F1C04000F03FB990EA010F0A
:102520000CEAD11348BF42F48072624538BF63455C
:1025300007D213F47F0F16D080EA010000F00040AC
:10254000704710B500F0E3F8097EFC3E00F005B8D6
:1025500080EA010000F00040704780EA010000F0CE
:10256000004000F01AB912F47F0F04BF0248704710
:1025700080EA010000F011B90000C07FB0FA80F3DA
:1025800010FA03F2C3F19D030AD0D90501EB122022
:10259000530638BF704700F1010008BF20F001006A
:1025A0007047000050EA010C00F113801CF5000F89
:1025B00058BFBCF5000F01D48842704707D710F50B
:1025C000000F58BF11F5000F15D48842704789429B
:1025D00070471CF5000F04D5BCF5000FF7D58142FC
:1025E00070474FF0807C1CEB400F38BF1CEB410F55
:1025F00001D28142704710B500F089F89224490059
:102600004FF000504FF08051FFF7E9BE4FF47F0CC0
:102610001CEAD0121EBF1CEAD11392EA0C0F93EAF7
:102620000C0F00F0478090EA010F48BF42F480721F
:102630004FF0004C4CEA00204CEA012102EB03026F
:10264000A0FB0113A2F50002002918BF43F001030B
:102650005B0028BF4FEA330342EB22425FEA132CB0
:102660004CEBC2502EBFBCEB436FB2F57C0F7047F2
:102670004FEA036CBCF1004F08BF20F00100B2F537
:102680007C0F38BF70470BD582F0FF0212F5803FF8
:10269000C8BF704700F1C040D8BF00F0004070478D
:1026A00000F5000C5FEA4C0C48BF7047B0F1C04029
:1026B00000F073B890EA010F0CEAD11348BF42F45E
:1026C0008072624538BF634504D280EA010000F0A1
:1026D0000040704710B500F01AF800BF8900013EB5
:1026E00000F007B800F009B85FEA410C5FEA1C6C23
:1026F00008D080EA010000F050B85FEA400C5FEAC1
:102700001C6CF6D14FF00040A0F5800070470EF130
:10271000020E2EF0030E5EF8044B244204D44FEA5E
:102720004102B2F17F4F11D84FEA4003B3F17F4F1E
:102730000CD80ED14FEAD07CB2F17F4F0CEB4C0C91
:102740000CF1020C08BF4CEBD17C04E04FF0080CFC
:1027500001E04FEAD17C0CEB4C0324FA03F404F0C3
:102760000704B4F1040C06D20EEB840CBDE8104053
:102770004CF0010C6047DFE80CF0070802024FF054
:102780000040A0F5800010BD0846420018BFD2F1FD
:10279000807288BF00F0004010BDFF2141EAD05098
:1027A000C005704751EA000C00F113801CF5000FC2
:1027B00058BFBCF5000F01D48142704707D711F50F
:1027C000000F58BF10F5000F15D4814270478942A1
:1027D00070471CF5000F04D5BCF5000FF7D58842F3
:1027E00070474FF0807C1CEB410F38BF1CEB400F53
:1027F00001D28842704780EA010081EA000180EA44
:102800000100FFF7F8BEFDF789BE00000000C841D7
:102810000000F04100000C4202400000000000A057
:102820000000000005400000000000C8000000009B
:102830000C4000000000409C000000001940000017
:102840000020BCBE0000000034400000BFC91B8E49
:1028500000000004B5400000504BCFD06607E2CF27
:10286000010000006C4100003E8251AADFEEA73457
:1028700001000000D9420000DCB5A0E23A301F9709
:10288000FFFFFFFFB4450000FD25A0C8E9A3C14F2D
:10289000FFFFFFFFFF3F000000000080000000007E
:1028A000FF3F00000000008000000000E828000852
:1028B000000000204C000000280100083429000816
:1028C0004C00002064060000440100081C000000C9
:1028D00043000000F8FFFFFF0C0000000E000000A6
:1028E0000F0000002E00000000A24A0400000000BB
:1028F000000000000102030406070809020406089C
:102900000000000001020304010203040607080995
:1029100001000000000000000000F0410000000085
:1029200000010000000000000000000000000000A6
:0429300000000000A3
:04000005080000ED02
:00000001FF
